:020000040800F2
:100000000017002015030008955E0008715B0008CA
:10001000915E00084F1F0008F56C0008000000000A
:10002000000000000000000000000000B5640008AF
:10003000AD23000800000000B3640008B7640008A6
:100040002F0300082F0300082F0300082F030008C8
:100050002F0300082F0300082F0300082F030008B8
:100060002F0300082F0300082F0300082F030008A8
:100070002F0300082F0300082F0300082F03000898
:10008000D12100082F0300082F0300082F030008C8
:10009000551F0008651F00082F0300082F030008E4
:1000A0002F0300082F0300082F0300082F03000868
:1000B0002F0300082F0300082F0300082F03000858
:1000C0002F0300082F0300082F0300082F03000848
:1000D0002F030008C56C0008D56C00082F0300082A
:1000E0002F0300082F0300082F0300082F03000828
:1000F0002F0300082F0300082F0300082F03000818
:100100002F0300082F0300082F0300082F03000807
:100110002F0300082F0300088D6500082F03000837
:100120002F030008E12100082F0300082F03000817
:100130002F0300082F0300082F0300082F030008D7
:10014000751F0008851F00082F0300082F030008F3
:10015000F12100082F0300082F030008E56C0008B8
:100160002F0300082F0300082F0300082F030008A7
:100170002F0300082F0300082F03000800000000D1
:100180002F0300082F03000800F002F800F0B2F877
:100190000AA090E8000C82448344AAF10107DA45E2
:1001A00001D100F0A7F8AFF2090EBAE80F0013F082
:1001B000010F18BFFB1A43F001031847E497010031
:1001C000049801000A444FF0000C10F8013B13F0B2
:1001D000070408BF10F8014B1D1108BF10F8015BA0
:1001E000641E05D010F8016B641E01F8016BF9D193
:1001F00013F0080F1EBF10F8014BAD1C0C1B09D1EA
:100200006D1E58BF01F801CBFAD505E014F8016B5B
:1002100001F8016B6D1EF9D59142D6D370470000ED
:100220000023002400250026103A28BF78C1FBD8FF
:10023000520728BF30C148BF0B6070476E2900F0DD
:10024000DD82702900F01F84662918F08C856529ED
:1002500018F08985672918F08685612918F0858549
:1002600003681B0A28BF41F08001692900F08A82D7
:10027000642900F08782752900F084826F2900F0DC
:10028000AC83782900F0EB83E92900F04783E42967
:1002900000F04483F52900F04183EF2900F0A983A1
:1002A000F82900F0EA830368DB0928BF41F08001E8
:1002B000632901F01381732901F01881E32901F00A
:1002C0002381F32901F02881002070471FB518F021
:1002D000C6FC01F07FF904000020002118F0B0F8FE
:1002E000401C60600020002118F094F8E0601FBD01
:1002F00010B510BD01F041F91146FFF7E7FF16F008
:100300001FFC01F01DFA03B4FFF7F2FF03BC00F07D
:10031000A5FC00000948804709480047FEE7FEE7C2
:10032000FEE7FEE7FEE7FEE7FEE7FEE7FEE7FEE7A5
:1003300004480549054A064B7047000079650008E6
:100340008901000800110020001700200013002080
:100350000013002053EA020C00F069802DE9F04BF5
:100360004FF00006002B1FBFB3FA83F503FA05F424
:1003700024FA05F65E4012BF1643B2FA82F502FA7D
:1003800005F4C5F120051EBF22FA05FC44EA0C0461
:10039000203556EA044C4FEA144418BF641C4FF051
:1003A00000084FF00009904271EB030C39D300298B
:1003B00019BFB1FA81F701FA07F6B0FA80F700FA2F
:1003C00007F6C7F120071EBF20FA07FC46EA0C0615
:1003D0002037B6FBF4FCA7EB0507103F07F01F0B17
:1003E000CBF120060CFA0BFB2CFA06F644BFB34601
:1003F0000026202FA4BF5E464FF0000B5BEA060CE0
:1004000008BF4FF0010B19EB0B09ABFB027C48EB6B
:100410000608C01B06FB02CC0BFB03CC71EB0C01E6
:10042000C1E70B46024641464846BDE8F08B13B58E
:100430004FF000004FF00001AFF30080BDE81C401A
:10044000704700001CB50C46064B7B446946009083
:10045000204600F0ECF904460020694600F0FAF965
:1004600020461CBD070400000EB5054614460E4686
:1004700013A000F0E2FB284600F0DFFB16A000F01E
:10048000DCFB304600F0D9FB15A000F0D6FB0021C4
:100490008DF80B100A210DF10A008DF80A1008E002
:1004A00094FBF1F201FB124294FBF1F4303200F8BC
:1004B000012D002CF4DC00F0C0FB00F0B3FB0000C9
:1004C0002A2A2A20617373657274696F6E206661CF
:1004D000696C65643A2000002C2066696C65200018
:1004E0002C206C696E652000032A40F2308010F0E9
:1004F000030C00F0158011F8013BBCF1020F6244BF
:1005000098BF11F801CB00F8013B38BF11F8013B4F
:10051000A2F1040298BF00F801CB38BF00F8013BFC
:1005200011F0030300F02580083AC0F0088051F86C
:10053000043B083A51F804CBA0E80810F5E7121D77
:100540005CBF51F8043B40F8043BAFF30080D20796
:1005500024BF11F8013B11F801CB48BF11F8012B62
:1005600024BF00F8013B00F801CB48BF00F8012B85
:10057000704710B5203AC0F00B80B1E81850203A0F
:10058000A0E81850B1E81850A0E81850BFF4F5AF33
:100590005FEA027C24BFB1E81850A0E8185044BFBD
:1005A00018C918C0BDE810405FEA827C24BF51F82A
:1005B000043B40F8043B08BF7047D20728BF31F81E
:1005C000023B48BF11F8012B28BF20F8023B48BF6F
:1005D00000F8012B70474FF0000200B51346944617
:1005E0009646203922BFA0E80C50A0E80C50B1F18B
:1005F0002001BFF4F7AF090728BFA0E80C5048BF9F
:100600000CC05DF804EB890028BF40F8042B08BF3C
:10061000704748BF20F8022B11F0804F18BF00F838
:10062000012B70474FF0013C50F8042B51F8043B6C
:100630009A4221D1A2EB0C03934313EACC1317D1B6
:1006400050F8042B51F8043B9A4215D1A2EB0C034D
:10065000934313EACC130BD150F8042B51F8043B0D
:100660009A4209D1A2EB0C03934313EACC13DBD0DB
:100670004FF00000704700BFD01A01BAB1FA81F103
:1006800001F0180122FA01F0CB40C1F12001DBB2E8
:10069000C0B2C01A2CFA01F3D11A914311EAC31166
:1006A000E6D1704770477047704710B500F0DCFA2C
:1006B000006810BD10B5044600F0D6FA046010BD05
:1006C00070B5044685690068C10601D5302600E092
:1006D0002026C00707D070BDD4E9012130469047DD
:1006E000206A401C20626D1EF6D570BD70B50446B0
:1006F00085690078C00707D170BDD4E901212020A9
:100700009047206A401C20626D1EF6D570BD0968B6
:100710004A0501D540B27047C905FCD500B2704703
:1007200009684A0501D5C0B27047C905FCD580B239
:10073000704770B50C460546012A05D0287880061A
:1007400000D5EA69002302E0012305E05B1C934227
:1007500002D2E05C0028F9D1A869E618C01AA861A5
:10076000286A184428622846FFF7AAFF04E0D5E962
:10077000012114F8010B9047B442F8D32846FFF743
:10078000B5FF70BD2DE9F0410646002410687529BB
:10079000314616A510D0FFF7BAFF002802DA404212
:1007A00013A507E031688A0701D512A502E04907C1
:1007B00004D511A5012401E0FFF7B2FF00210A22B0
:1007C00006F1240709E0B0FBF2FCB0FBF2F302FBF8
:1007D0001C00303078541846491C0028F3D12346B9
:1007E0002A463046BDE8F04100F087BA000000001C
:1007F0002D0000002B00000020000000116802689E
:10080000006A530501D508700AE0D30501D50880B8
:1008100006E0130603D5C217C1E9000200E0086034
:100820000120704701694A1C02610878704700B5D1
:100830008FB0CDE901310021059105497944CDE919
:1008400003101146684600F029F90FB000BD000002
:10085000E5FFFFFF0A6802F8010B0A60704700001D
:100860002DE9FF5F15468A460446DFF8AC80F84460
:100870000027D8E900103E46CDE9001010E03AF814
:1008800016106A4602A800F04BFE411C07D02178E2
:10089000890603D5E269391891420DD80744761CC0
:1008A0002078800602D5E069B84205DDAE42E6DB7D
:1008B0003AF816000028E2D1A069C01BA0612046CA
:1008C000FFF7FEFED8E90010CDE90010002017E088
:1008D0003AF818106A4602A800F022FEB0F1FF3F75
:1008E00081460BD000250DF1080B05E0D4E901216C
:1008F0001BF8050090476D1C4D45F7D308F101002A
:10090000B0428046E4DB206A384420622046FFF78C
:10091000EDFEBDE8FF9F00000E9001002DE9F041C3
:100920008046D21D22F007020025D2E90002F529F7
:1009300015A614D0011E72F1000106DA0023D0EBD7
:10094000030063EB020211A608E0D8F800108B0741
:1009500001D50FA602E0490701D50EA601251146D3
:10096000002408F1240704E000F082F930323A55FF
:10097000641C50EA0102F7D12B463246214640461C
:10098000BDE8F04100F0B9B9000000002D00000002
:100990002B0000002000000030B4002100F12404EE
:1009A00008E002F00705D208303542EA4372DB085E
:1009B0006554491C52EA0305F3D10468002310A2D0
:1009C000250707D5A40600D421B1C46901230DA2CF
:1009D000641EC46130BC00F090B910B504462146D5
:1009E0001068FFF79DFE02462046BDE81040002338
:1009F000D2E7D21D22F00701D1E90023CCE70000A5
:100A00000000000030000000F0B40D460188090528
:100A100002D5214C7C4402E01F4C7C440E34002162
:100A200000F1240608E002F00F071209E75D42EA30
:100A300003721B097754491C52EA0307F3D1027869
:100A40000023120704D5702D06D009B102231134FA
:100A50002246F0BC00F051B901231034F8E770B51C
:100A600004460D4621461068FFF75AFE0246294605
:100A70002046BDE870400023C6E7D21D22F00703E0
:100A8000D3E90023C0E70368126843F02003036042
:100A90000823C3610023B7E7708E01002DE9F05FE2
:100AA000894604464FF0000ADFF874B1FB44C0F8F1
:100AB00020A02046E1688847002874D0252806D069
:100AC000D4E901219047206A401C2062F1E700260A
:100AD0005F462046E16888472028054607DB312D20
:100AE00005D2781910F8200C08B10643F1E7B007D9
:100AF00001D526F00406C4F81CA00027C4F818A0ED
:100B00002A2D09D0284606F0C7FD38B304EB870824
:100B1000303DC8F8185019E059F8041B204604EB82
:100B200087029161E1688847012F054618D1E06985
:100B3000002820DA26F020061DE0D8F8180000EB87
:100B4000800005EB40003038C8F818002046E16806
:100B50008847054606F0A0FD0028EED1012F0AD0F7
:100B60002E2D08D12046E16888477F1C0546022FBC
:100B700046F02006C4DBA069002803DA404246F0B4
:100B80000106A061F00701D026F010066C2D0BD0F5
:100B9000682D09D04C2D39D06A2D35D0742D35D023
:100BA0007A2D33D016E038E0E1682F46204688479A
:100BB000B842054609D16C2F26D04FF48060E16819
:100BC000064320468847054604E06C2F1AD04FF4B0
:100BD000807006430DB3A5F14100192802D82035D5
:100BE00046F400664A462946204626604E46FFF7F0
:100BF00025FB80B101280BD0F61D26F0070000F17F
:100C0000080956E74020E4E78020D8E70020D6E72F
:100C100006F104094DE7284652E7206ABDE8F09F37
:100C2000008E010010B5002000F09AFCFFF760FB79
:100C3000BDE81040012000F011B810B5044602E0F4
:100C4000641C00F004F820780028F9D110BD08B524
:100C500069468DF800000320ABBE08BD014918208D
:100C6000ABBEFEE72600020000487047A01000203F
:100C700030B5B0F10A024FEA900E71F100034EEA6E
:100C8000817EB0EB0E0061EB91014FEA101E4EEA3F
:100C9000017E10EB0E0041EB11114FEA102E4EEACF
:100CA000016E10EB0E0041EB11214FEA104E4EEA9F
:100CB000014E10EB0E0041EB1141401841F10001D3
:100CC0004FEAD00040EA41704FEAD10110EB8005B5
:100CD0004FEA810444EA907444EB01046D1944EB3B
:100CE0000404521BA3414FF0000348BF0A3200D551
:100CF00030BD401C41F1000130BD2DE9F0470D46EB
:100D000099469246044600F124080168880604D5F5
:100D1000E06921F01001216000E00120A84201DD1E
:100D2000471B00E00027A1697A1902EB0900081AA5
:100D3000A0612078C00602D42046FFF7C1FC00263F
:100D400008E0D4E901211AF806009047206A401C07
:100D5000761C20624E45F4DB2078C0060AD520467A
:100D6000FFF7AEFC06E0D4E9012130209047206A6D
:100D7000401C2062381EA7F10107F4DC07E0D4E92B
:100D8000012118F805009047206A401C2062281EA7
:100D9000A5F10105F3DC2046FFF7A8FC207800064A
:100DA00002D50220BDE8F0870120FBE770472DE95E
:100DB000FF4F0C461E464FF0FF378BB0D2E90001C3
:100DC000DDF860800A908A46C1F30A5505B93D46B0
:100DD000002108464FF00000BAF1000F00F4400077
:100DE00005DA00EB80004FF4400101EA50004FEAC1
:100DF0009059B9F1010F00DDB9460A9850EA4A004E
:100E00000ED044F61050A5F2FF3545432F14B8F12B
:100E1000000F1ED07542291E1EDDC9F100021CE024
:100E2000B8F1010F4FF0000001D0302103E0F24390
:100E300005E02154401CB042FBDB3046002200217B
:100E400021540B99C1F80880C1E900200FB0BDE81A
:100E5000F08FBD1B6D1CDEE74A4600DA694206A82A
:100E600000F0FCFB06AB93E8070003AB83E8070048
:100E700050460A9900F0A3FC8DE80700A0F5005049
:100E80001F3800900398002D0ADD42F21F014A46E8
:100E90000844002303A90390684600F00CFF09E012
:100EA000A0F500504A461F38002303A90390684666
:100EB00000F016FF8DE807000004000C03D04FF08F
:100EC000FF30410800E01046B8F1000F03D00022C7
:100ED000009215461EE0751E05D4FFF7C9FE30329C
:100EE00062556D1EF9D5B3460122084302D0002297
:100EF0007F1C04E02078302801D100227F1E002AC8
:100F0000099784D01DE0112D07DAFFF7B1FE3032CA
:100F100062556D1C50EA0102F5D1084302D00098D9
:100F2000C8B10EE00021681E05E0235C625C6354DA
:100F30002254401E491C8142F7DBAB46A81B401ED1
:100F40000990002004F80B000B98099AC0F808805B
:100F5000C0E9002B7AE711264FF0000857E72DE98A
:100F6000F04F88460446D21D22F0070191B0D1E926
:100F70000001CDE90A0105F0BFFE02460B98C00F43
:100F800001D02D2007E02068810701D52B2002E049
:100F9000202101EAC000032A099001D0072A05DBBD
:100FA00003464146204600F019FB0BE120788006FD
:100FB00001D5E06900E00620B8F1650F814606D052
:100FC000B8F1660F18D0B8F1670F70D131E000208A
:100FD000B9F1110F009001DB112301E009F10103C8
:100FE0000AAA01A90CA8FFF7E2FEDDE90C700026B1
:100FF00009F10105834647E001204B4600904FF080
:1010000000470AAA01A90CA8FFF7D1FEDDE90DB03F
:101010000C995D46002610B909F101000D18B9EBD5
:10102000050003D4C0F1FF3609F10105A5EB090065
:101030002BE0B9F1010F01DA4FF001090020B9F1FD
:10104000110F0090484601DD112300E003460AAA73
:1010500001A90CA8FFF7ABFEDDE90C704D46002698
:101060008346207800070AD4AB4500DA5D4601A824
:10107000012D04DD411911F8011C302907D04F451D
:1010800002DA17F1040F04DA012082460FE06D1E28
:10109000EEE7002F02DCED1B3E4403E0781CA84283
:1010A00000DD7D1CB81B00F1010A4FF000472078DD
:1010B000000703D4AA4501DB4FF0FF3A0021B7F146
:1010C000004F0DF143088DF8431024D002202B234C
:1010D000002F01DA7F422D230A21021EA0F1010018
:1010E00000DC5FB197FBF1FC97FBF1F201FB1C7C8C
:1010F00017460CF1300C08F801CDEEE7A8F101001D
:1011000003702188090501D5452100E06521A0F182
:10111000010800F8011C09980FA9A1EB0807FF1DA1
:1011200000B10120411901EBEA70A1693844081AA5
:10113000401EA0612078C00602D42046FFF7C0FA06
:10114000099828B1D4E901219047206A401C206207
:101150002078C00622D52046FFF7B2FA1EE0002E06
:1011600004DBB34502DD01A8805D00E03020D4E956
:1011700001219047206A401C2062761CAAF10100E0
:101180005FEA000A0AD100F025FAC0680168405CF5
:10119000D4E901219047206A401C2062281EA5F155
:1011A0000105DCDC07E0D4E9012118F8010B9047C8
:1011B000206A401C2062381EA7F10107F3DC20469C
:1011C000FFF794FA032011B041E600002DE9F04F3B
:1011D00004460D46D21D22F0070089B0D0E90097E1
:1011E0004846394605F088FD0246F80F01D02D2308
:1011F00007E02068810701D52B2302E0202101EAC6
:10120000C0038DF820300BB1012000E00020032A3C
:10121000824601D0072A04DB2946204600F0DEF989
:101220003FE12078800601D40D2500E0E569C7F391
:101230000A560D2D49DA00214FEA175B08464FF098
:101240000000002F00F4400007DA00EB80004FF4AC
:10125000400100EBD07001EA60008115012901DD39
:101260004FF0FF3100224FEA850CBCF1180F06D376
:101270001346ACF118004FF08052C24003E04FF427
:10128000801323FA0CF30CF10C0CBCF1200F04D3E7
:10129000ACF1200C09FA0CF001E007FA0CF000297F
:1012A0004FF0004801DD18B90FE00ED140450CD3D6
:1012B00019EB02095F4121B9404502D19F4329EA58
:1012C0000209BBEB175F00D0761C2088000502D511
:1012D0007B48784402E07A487844193808AA3023D9
:1012E00002F80A30037C0AF10101002E0AF1020A19
:1012F00053546A4602DC4FF0300101E04FF03101F7
:101300004FF001088DF8001002D0A6F2FF3603E07E
:1013100059EA470100D06B4E002D02DC2178090705
:1013200004D54FF002082E218DF80110C44600218B
:101330000BE0C7F303433F01C35C491C6D1E02F879
:101340000830052908F1010801DA002DF1DC00213F
:101350000CE000EB1973491C1B786D1E082902F87C
:1013600008304FEA091908F1010801DA002DF0DC14
:1013700021688B0602D516E0A8F10108E04505DDDD
:1013800002EB080313F8013C302BF5D0B8F1000F45
:1013900009DD02EB080313F8013C2E2B03D10907EA
:1013A00001D4A8F10108002D05DD3E2102F8081046
:1013B0006D1E08F10108407C002E02F8080008F1BB
:1013C000010804DA2D20764202F8080002E02B2002
:1013D00002F808000A214FF47A70864208F10108E9
:1013E0000BDB96FBF0F3303302F8083096FBF0F39A
:1013F00008F1010800FB136601E0642E0CDB642099
:1014000096FBF0F3303302F8083096FBF0F308F166
:10141000010800FB136601E00A2E06DB96FBF1F0E3
:10142000303002F8080008F1010896FBF1F001FBEA
:101430001060303002F80800A16908F1010808EBDB
:10144000050202EB0A00081AA0612078C00602D447
:101450002046FFF735F9216A08AE01EB0A00206249
:1014600004E0D4E9012116F8010B9047BAF1010A12
:10147000F7D22078C00602D52046FFF721F96E4644
:1014800009E016F8010B3E280FD0D4E9012190475E
:10149000206A401C2062B8F10108F2D22046FFF712
:1014A00025F909B00320BDE8F08F206A28442062A6
:1014B00003E0D4E90121302090476D1EEBD3F8E71B
:1014C0002186010002FCFFFF10B5436913B1AFF3A1
:1014D000008001E0FFF72DF9012010BD127800F126
:1014E00024010A7000224A700122EDE711684FF0D2
:1014F000FF32E9E710B5436913B1AFF3008001E0B3
:10150000FFF7AEF9012010BD128800F1240182849A
:101510000022C2840122EDE711684FF0FF32E9E7B3
:1015200070B516460C46054600F04CF8036893F873
:101530000101012806D0FF2C0FD8185D68B10120E9
:101540002C7070BDD3F807013246214603F2071311
:1015500003442846BDE8704018474FF0FF3070BD87
:1015600010B500F0FBF8BDE8104000F0F2B8000044
:1015700000487047A010002070477546FFF7F8FF3D
:10158000AE4605006946534620F00700854618B070
:1015900020B5FEF7CDFEBDE820404FF000064FF02D
:1015A00000074FF000084FF0000B21F00701AC4698
:1015B000ACE8C009ACE8C009ACE8C009ACE8C009B7
:1015C0008D46704710B500F005F8001D10BD00BF36
:1015D000716E010000487047C01000202DE9F041F5
:1015E0001F46044603260168072A01F4006004DB55
:1015F00008B116A505E016A503E008B115A500E0A1
:1016000015A521F010002060A069C01EA0610FB1D7
:10161000401EA0612046FFF753F84FB1D4E90121E5
:1016200038469047206A401C2062C01C206206E0B9
:10163000206AFAE7D4E9012115F8010B9047761EDC
:10164000F8D22046FFF752F8BDE8F0814E414E0037
:101650006E616E00494E4600696E66002DE9F047E6
:10166000814616468AB0354878440DC88DE80D008D
:1016700032487844801C03AC0DC884E80D0041F664
:101680009B300844372190FBF1F290FBF1F5A5F176
:10169000800501FB12041B3C02D56442012000E0DE
:1016A0000020DFF898A080460027FA44AAF1BE0A7D
:1016B0000EE0E0070AD03246684607EB47010123F7
:1016C0000AEB810100F00CFB8DE8070064107F1C21
:1016D000002CEED1194F7F44AE3F19E0E80715D03A
:1016E00007EB04100DF1180A90E80E008AE80E00CE
:1016F000C068F04201D1981908903246012306A92A
:1017000003A800F0EDFA03AB83E807006D10641C3A
:10171000002DE3D14FF0010332466946B8F1000FC6
:1017200003A802D000F0C7FA01E000F0D9FAC9E935
:101730000001C9F808200AB0BDE8F0871C83010049
:1017400010B50446AFF300802046BDE81040FEF718
:10175000DABD002801D0FFF781BA704710B500212B
:1017600002A000F013F8012010BD000053494741CA
:101770004252543A2041626E6F726D616C20746502
:10178000726D696E6174696F6E00000070B5054618
:101790000C460A2000E06D1CFFF759FA35B1287895
:1017A0000028F8D102E0641CFFF751FA14B1207848
:1017B0000028F8D1BDE870400A20FFF748BA5FEA78
:1017C000400C08BF91F0000F4FEA8C234FEAC12272
:1017D00043EA51514FEA1C5018BF00F5F0404FEA60
:1017E000300018BF41F000415FEA6C5C00F02980D6
:1017F000BCF1FF3F08BF40F080407047130C06BFAC
:1018000012044FF0100C4FF0000C130E04BF120224
:101810000CF1080C130F04BF12010CF1040C930F10
:1018200004BF92000CF1020CD30F04BF52000CF164
:10183000010C11464FF00002A0F11F00A0EB0C00BC
:10184000704711F0004F08BF704731F000413FF47E
:10185000D5AF0B0C06BF09044FF0100C4FF0000C75
:101860000B0E04BF09020CF1080C0B0F04BF090199
:101870000CF1040C8B0F04BF89000CF1020CCB0F90
:1018800004BF49000CF1010CCCF12003A0EB0C00CB
:1018900022FA03F302FA0CF241EA030100F101001B
:1018A000704720F07F4C80EA030023F07F47ACEBC9
:1018B000070303F57C5300F0004003F1FF032DE91B
:1018C00080494FEA154B09B44FEA144325EA0B4E01
:1018D00024EA03480FF2042606EB132749083E7852
:1018E0005FEA320203FB0667C7F5000707FB06F64F
:1018F0004FEA54374FEAD64606F1020607FB066C5C
:10190000CCF1005C4FEA1C472CEA074C07FB06F4BD
:101910000CFB06F504EB15464FEA961634BF002083
:101920004FF000404FEAD13706FB07FC4FEA1C4C52
:101930000CFB0BF7D21B03FB0CF761EB07010CFB55
:101940000EF7B0EB074072EB17420CFB08F734BF01
:10195000A2EB0742B2EB074261EB17414FEA0C449E
:101960004FEA910706FB07FC4FEA1C4C0CFB0BF7F8
:10197000B0EBC74072EB573203FB0CF734BFA2EB5E
:10198000C742B2EBC74261EB57310CFB0EF7B0EB2D
:10199000C70072EB57720CFB08F734BFA2EBC7020B
:1019A000B2EBC70261EB5771039F4FEA816141EAD5
:1019B000921104EBCC044FEAD1374FEA826206FB66
:1019C00007FC42EA90124FEA80604FEA1C4C0CFB85
:1019D0000BF7D21B03FB0CF761EB07010CFB0EF7B7
:1019E000B0EB074072EB17420CFB08F734BFA2EBD9
:1019F0000742B2EB074261EB17414FEA8C554FEAC1
:101A0000910704EB9C2406FB07FC4FEA1C4C0CFBE3
:101A10000BF7B0EBC74072EB573203FB0CF734BF48
:101A2000A2EBC742B2EBC74261EB57310CFB0EF79A
:101A3000B0EBC70072EB57720CFB08F734BFA2EB98
:101A4000C702B2EBC70261EB577115EB4C254FEAA9
:101A5000816141EA92114FEA82624FEAD13742EA4C
:101A6000901206FB07FC44F100044FEA80604FEA45
:101A70001C4C0CFB0BF7D21B03FB0CF761EB0701B3
:101A80000CFB0EF7B0EB074072EB17420CFB08F7AC
:101A900034BFA2EB0742B2EB074261EB174115EBF3
:101AA0001C154FEA813141EA92414FEA823242EA03
:101AB00090424FEA80304FEA0C7644F1000448EA45
:101AC00003434EEA0B484FF0000EB2EB080C71EBEB
:101AD000030724BF624639464EEB0E0E4FF0000B53
:101AE0000018524149414BEB0B0BB2EB080C71EB68
:101AF00003077BF1000B24BF624639464EEB0E0E06
:101B00004FF0000B0018524149414BEB0B0BB2EB6D
:101B1000080C71EB03077BF1000B24BF62463946CA
:101B20004EEB0E0E51EA020718BF46F0010616EB07
:101B30000E7655F1000254F1000103D5BDE889018C
:101B4000BDE80088BDE88901BDE80048B6195241EA
:101B500041EB0101A3F10103704780807F7E7D7C12
:101B60007B7A7978777676757473727171706F6E2F
:101B70006E6D6C6C6B6A6A696868676666656464DA
:101B8000636362616160605F5F5E5E5D5D5C5C5B64
:101B90005B5A5A59595858575756565555555454D3
:101BA000535352525251515050504F4F4F4E4E4D31
:101BB0004D4D4C4C4C4B4B4B4A4A4A49494948487D
:101BC00048474747474646464545454444444443BD
:101BD00043434342424242414141002B9C4630D460
:101BE00077002BD01CB54FEA370703B44FF0100035
:101BF0004FF01001BAF1000F06D0BCF1000FDCBFAE
:101C000040F0080040F008014FF000000FBCBDE8B4
:101C100010400BF1010BBBF1010F08BF5FEA170782
:101C200022BF12F1010211F101014FF0004143F115
:101C3000000300F0004043EA00007047F9D3570862
:101C4000D0E746EA064613F1400F4FEA16461FDD7D
:101C500013F1200FDFBF16430A46002120335B42F9
:101C6000BED0C3F1200746EA064602FA07F74FEA5C
:101C7000164646EA0706C3F1200722FA03F201FAE4
:101C800007F721FA03F14FF0000342EA0702A7E742
:101C900046EA020646EA06464FEA164646EA0106C4
:101CA000BCBF46EA0646360C4FF000034FF0000278
:101CB0004FF0000194E72DE9804C9A46934670B4AA
:101CC00091E8380007C831EA400C48BF34EA430CB9
:101CD00003D5FFF7E6FDFFF780FFF0BCBDE8008C01
:101CE0002DE9804C9A46934670B491E8380007C8B5
:101CF00010F0804F08BF13F0804F03D100F005F8BB
:101D0000FFF76BFFF0BCBDE8008C20F07F4780EA56
:101D1000030023F07F4C07EB0C03A3F57C5300F08A
:101D20000040A3F1FE0392F0000F00F0B38095F0A5
:101D3000000F00F077802DE901494FEA11404FEA8A
:101D4000144621EA004800FB06FC24EA064708FB8B
:101D500006F607FB08F800FB07F718EB06484CEB04
:101D6000164C4FEA124B18EB07484FEA15464CEB5E
:101D7000174022EA0B4E0BFB06FC25EA06470EFB3A
:101D800006F607FB0EFE0BFB07F71EEB064E4CEBB1
:101D9000164C4FF000061EEB074E4CEB174B18EBA2
:101DA0000B0840F1000018EB0E0B58EB000840F157
:101DB00000008F1A4FF000013CBFC943661B14BFDF
:101DC000B5EB040C00213CBFC943F61B4FEA174496
:101DD0004EEA8E0E27EA04454FEA1C4704FB0762D1
:101DE0002CEA074C05FB07F70CFB05F604FB0CFC83
:101DF00016EB074642EB174216EB0C4642EB1C4231
:101E00001BEB060658EB0202414146EA9E0601D54D
:101E1000BDE80189B619524141EB0101A3F101036B
:101E2000BDE801894FEA14454FEA114724EA054607
:101E300021EA074C05FB07F406FB07F70CFB06F14C
:101E400005FB0CFC11EB074144EB17444FEA12472A
:101E500011EB0C4144EB1C4422EA074C05FB07F252
:101E600006FB07F70CFB06F605FB0CFC16EB07461A
:101E700042EB174216EB0C4642EB1C456A1854F134
:101E8000000148BF7047B619524141EB0101A3F16F
:101E90000103704795F0000F37D04FEA11424FEA27
:101EA000144721EA024624EA074C02FB07F106FB2D
:101EB00007F70CFB06F402FB0CFC14EB074441EBA8
:101EC00017414FEA154714EB0C4441EB1C4125EA3E
:101ED000074C02FB07F506FB07F70CFB06F602FBB7
:101EE0000CFC16EB074645EB174516EB0C4645EB8D
:101EF0001C42121951F1000148BF7047B6195241F6
:101F000041EB0101A3F1010370474FEA14454FEA89
:101F1000114724EA054621EA074C05FB07F106FBB9
:101F200007F70CFB06F24FF0000605FB0CFC12EB6A
:101F3000074241EB174112EB0C4251EB1C4148BFE9
:101F40007047921841EB0101A3F10103704700BFF4
:101F5000FEE7000010B5024801F0CFF910BD000007
:101F60006006002010B5024801F0C7F910BD00005E
:101F70006006002010B5024801F0BFF910BD000056
:101F80008806002010B5024801F0B7F910BD000026
:101F90008806002090ED080AB5EEC00AF1EE10FAAE
:101FA00004D29FED690A80ED080A0CE090ED080A62
:101FB000DFED660AB4EEE00AF1EE10FA03DD9FED04
:101FC000630A80ED080A90ED090AB5EEC00AF1EE49
:101FD00010FA04D29FED5C0A80ED090A0CE090ED46
:101FE000090ADFED5A0AB4EEE00AF1EE10FA03DD59
:101FF0009FED560A80ED090A90ED050ADFED540ABF
:10200000B4EEE00AF1EE10FA04D29FED510A80ED31
:10201000050A0CE090ED050ADFED4E0AB4EEE00A89
:10202000F1EE10FA03DD9FED4B0A80ED050A90ED0D
:10203000060ADFED490AB4EEE00AF1EE10FA04D226
:102040009FED450A80ED060A0CE090ED060ADFEDF3
:10205000430AB4EEE00AF1EE10FA03DD9FED3F0A09
:1020600080ED060A90ED070ADFED3D0AB4EEE00AC6
:10207000F1EE10FA04D29FED3A0A80ED070A0CE067
:1020800090ED070ADFED370AB4EEE00AF1EE10FA40
:1020900003DD9FED340A80ED070A817B027861F34E
:1020A00003020270017C027861F30612027090ED67
:1020B000080ADFED2D0A20EE200ABDEEC00A10EE60
:1020C000101A0AB2411CA0F8092090ED090ADFEDB0
:1020D000260A20EE200ABDEEC00A10EE101A0AB23F
:1020E000411CA0F80B2090ED070ADFED200A80EEDE
:1020F000201A9FED1F0A21EE000ABDEEC00A10EE65
:10210000101AC0F80510D0ED060A9FED181A80EEDF
:10211000810ADFED180A20EE200ABDEEC00A10EE9B
:10212000101A0AB2411CA0F8032090ED050ADFED59
:10213000110A20EE200ABDEEC00A10EE101A09B2F4
:10214000A0F801107047000000000000C1CACC4197
:10215000E1FAFFC2E1FAFF42000049C4000049442D
:10216000C00FC9C8C00FC9480000A044F90FC9403A
:1021700000000047000080439FED130B80ED000B33
:102180009FED110B80ED020B9FED0F0B80ED040B0B
:102190009FED0D0B80ED060B9FED0B0B80ED080BFB
:1021A0009FED090B80ED0A0B9FED070B80ED0C0BEB
:1021B000012181639FED040B80ED100B9FED020B5D
:1021C00080ED120B704700000000000000000000CE
:1021D00010B5024801F058FC10BD0000780800203E
:1021E00010B5024801F050FC10BD0000D8080020D6
:1021F00010B5024801F048FC10BD0000180800208E
:102200000146087810381823B0FBF3F20848805CC8
:10221000C865032A05D908686FF30900001D8865A1
:1022200003E008686FF309008865886D7047000057
:10223000908D0108014600208A6A8B69CBB932B1C2
:10224000012A0DD0022A03D0032A10D10EE000BFCC
:10225000CB6A03F08073B3F1807F00D1012007E0E7
:10226000CB6AB3F1C07F00D1012001E000E000BFE4
:1022700034E08B69B3F5005F1AD132B1012A07D07F
:10228000022A03D0032A11D10AE000BF01200EE088
:10229000CB6A03F08073B3F1807F00D1012006E0A8
:1022A000CB6AB3F1C07F00D1012000E000BF15E090
:1022B00032B1012A05D0022A04D0032A0CD103E04E
:1022C00000BF00BF012008E0CB6A03F08073B3F1C8
:1022D000807F00D1012000E000BF00BF704730B513
:1022E0000468246824F4802405682C600468636012
:1022F0008468402C04D10468A2600468E16003E0B3
:102300000468A1600468E26030BD000000B50F48B9
:10231000007808B900F024F80D4843680D480068BB
:102320001A1A0C48036000EE102AF8EE400A9FEDDE
:102330000A1A80EE810A0948D0ED000A30EE200A20
:1023400080ED000A90ED000A00BD0000E0010020D1
:10235000001000E0E4010020A037204DE80100203B
:102360000C48006840F080700A49086000200A4963
:1023700048600846006840F00100086001200749F5
:1023800008700020064908609FED060A064880EDA7
:10239000000A7047FCED00E0001000E0E0010020C2
:1023A000E401002000000000E8010020704772B640
:1023B00000BFFEE701202449087000204870FF207C
:1023C00088709FED220A084680ED010A9FED200AE1
:1023D00080ED020A032081F85C0002211A4880F88F
:1023E0005D10012180F85E109FED1A0A80ED180A39
:1023F0009FED190A80ED190A0520134981F8B800EC
:102400000421114880F8B910012180F8BA109FED1D
:10241000130A80ED2F0A9FED120A80ED300A072083
:10242000094981F814010621074880F81511FF2198
:1024300080F816119FED0B0A80ED460A9FED0A0AFF
:1024400080ED470A70470000B80A0020B072A8C0AB
:10245000C898CDC09FAB1741FED413417E8C2D414F
:1024600017D93C414D848BC0C0ECC2C010B52DEDD6
:102470000A8B044694ED0F0AF0EE40AA94ED100A80
:10248000F0EE409A2AEEAA0A09EEA90AB0EE40BA86
:10249000B0EE4B0A05F022F8F0EE40BA9FED2F0A9D
:1024A000F4EEC0BAF1EE10FA04D24FF0FF30BDECFA
:1024B0000A8B10BD9FED2A0A3BEE400ADFED290A88
:1024C000C0EE20CA8CEEAB8AB7EE000AB4EEC08A2A
:1024D000F1EE10FA06DCBFEE000AB4EEC08AF1EEAF
:1024E00010FA02D24FF0FF30E1E7F0EE6A0AB0EEE8
:1024F000690A04F0D5FCB0EE40AAB0EE480A04F038
:1025000043FCF0EE408A3AEE28CA3AEE689AB5EEFD
:10251000C09AF1EE10FA05D29FED130A39EE000AC7
:10252000B0EE409AB1EE4C0ADFED100A20EE200A20
:1025300084ED070A9FED0E0A39EE400ADFED0B0A23
:1025400020EE200A84ED080A9FED0A0A84ED090AAC
:102550009FED080A84ED0A0A0020A8E717B7D138D2
:102560008FC2F53CCDCC4C3EDA0FC9405C8FCA40DF
:10257000DA0F49400000000010B52DED108B88B037
:10258000044694ED030AB1EE400ADFED9B0A80EEAB
:10259000201A8DED071AD4ED040A9FED971A80EEEC
:1025A000810ADFED960A30EE200A8DED060A9DEDD8
:1025B000070A04F0CBFDDFED920A20EE200A8DED34
:1025C000050A9DED070A04F0C1FEDFED8D0A20EE3D
:1025D000200A8DED040A9DED060A04F0B7FDDFED3B
:1025E000880A20EE200A8DED030A9DED060A04F00C
:1025F000ADFEDFED830A20EE200A8DED020A9DED8F
:10260000050ADDED030A30EE600AF0EE40AA9DED0A
:10261000040ADDED020A30EE600AB0EE40BA9FED2A
:10262000790A2AEE800AB0EE409A9FED760A2BEEE8
:10263000000AB0EE408A9FED740A0AEEAA0A0BEE79
:102640000B0ADFED710A30EE600AF0EE409AB0EE50
:10265000C80ADFED6E0AB4EEE00AF1EE10FA05D218
:102660004FF0FF3008B0BDEC108B10BD29EE090A09
:1026700008EE080AF0EE40BA49EEE9BAF5EEC0BA43
:10268000F1EE10FA02D24FF0FF30EBE7B0EE6B0A3A
:1026900004F024FF20EE080AF1EE690A00EE890A30
:1026A00069EE090A48EE080AC0EE208AB1EE690A0E
:1026B00009EE680A80EE08AA9DED050ADFED540ACE
:1026C00000EEA80A84ED0B0A9DED040ADFED500A26
:1026D00000EE8A0A84ED0C0A94ED050AB1EE400A78
:1026E000DFED450A80EE20CA94ED060ADFED420ACE
:1026F000C0EE20CA9DED070A04F028FEDFED450A72
:1027000020EE200A20EE0CDA9DED070A04F01EFDF3
:10271000DFED3B0A20EE200A60EE0CDA9DED060AA2
:1027200004F014FEDFED3B0A20EE200A20EE2C0A16
:102730008DED010A9DED060A04F008FDDFED300A7B
:1027400020EE200A20EE2C0A8DED000AD4ED0B0AB3
:102750009DED030A30EEC00ADFED2D0A80EE20EA7F
:10276000D4ED0C0A9DED020A30EEC00ADFED280A16
:10277000C0EE20EA2AEE0E0AB0EE40FA0EEEE8FABB
:10278000B0EECF0ADFED210AB4EEE00AF1EE10FA66
:1027900009D29FED210A84ED0D0A9FED1F0A84EDF9
:1027A0000E0A00205EE79DED010A3DEE400A20EE94
:1027B0000E0ADDED000A7DEEE00A00EEAE0ADFED66
:1027C000140A6FEE200AC0EE20FA9FED110A6FEE98
:1027D000800AB0EE4D0A00EECA0A84ED0D0A9FEDA4
:1027E0000C0A6FEE800AB0EE6D0A00EEA80A84EDC6
:1027F0000E0A002036E700005C8FCA40DA0F49401D
:10280000CDCCCC3DCDCCCC3E0BD7233D17B7D1386A
:10281000CDCC4C3ECDCCCCBD0000000090F90210D8
:1028200000EE901AF8EEE00AB0EE600A017801EBD3
:102830008101194A02EBC101D1ED080A90ED011A9C
:1028400070EEC10A60EE800AC0ED030A417801EB28
:10285000810102EBC101D1ED080A90ED021A70EE80
:10286000C10A60EE800AC0ED040A017801EB810123
:1028700002EBC101D1ED070A60EE800AC0ED050A46
:10288000417801EB810102EBC101D1ED070A60EE55
:10289000800AC0ED060A7047A002002090ED0F0AE2
:1028A000D0ED0B0A30EE600AD1ED000A20EE200ACE
:1028B000D1ED010A90ED0D1A00EEC10A80ED130A68
:1028C00090ED100AD0ED0C0A30EE600AD1ED030A4B
:1028D00020EE200AD1ED040A90ED0E1A00EEC10A96
:1028E000D1ED060A30EE200A80ED140A7047000090
:1028F00070B52DED048B0546F0EE408AB0EE609A7F
:1029000005F0030030B101286AD002287ED00328E8
:1029100065D134E1CF48447890F9020000EE100A06
:10292000B8EEC00AB0EE408ACA4890ED020AD0ED77
:10293000080A00EE880AF0EE409AB0EE492AF0EE5E
:10294000681AB0EE691ADFEDC40A9FEDC30A0122CE
:102950002146C24815F014FCC14951F82400BF4B70
:102960000B22002115F00AFBBD4951F82400BB4B96
:102970000A22002115F002FBB64890F85D4090F95C
:102980005E0000EE100AB8EEC00AB0EE408AB14810
:1029900090ED190AD0ED1F0A00EE880AF0EE409A79
:1029A000B0EE492AF0EE681AB0EE691ADFEDAA0A15
:1029B0009FEDA90A01222146A84815F0E1FBA8498C
:1029C00051F82400A54B0B22002115F0D7FAA44999
:1029D00051F82400A14B0A22002115F0CFFA35E16D
:1029E0009C48047890F9020000EE100AB8EEC00A84
:1029F000B0EE408A974890ED010AD0ED070A00EE4C
:102A0000880AF0EE409AB0EE492A00E050E0F0EE7D
:102A1000681AB0EE691ADFED900A9FED8F0A012265
:102A200021468E4815F0ACFB8D4951F824008B4BA4
:102A30000B22002115F0A2FA894951F82400874B96
:102A40000A22002115F09AFA824890F85C4090F929
:102A50005E0000EE100AB8EEC00AB0EE408A7D4873
:102A600090ED180AD0ED1E0A00EE880AF0EE409AAA
:102A7000B0EE492AF0EE681AB0EE691ADFED760A78
:102A80009FED750A01222146744815F079FB7449BF
:102A900051F82400714B0B22002115F06FFA704998
:102AA00051F824006D4B0A22002115F067FACDE0A1
:102AB000684890F8B94090F9BA0000EE100AB8EEF4
:102AC000C00AB0EE408A634890ED300AD0ED360A75
:102AD00000EE880AF0EE409AB0EE492AF0EE681A4D
:102AE000B0EE691ADFED5C0A9FED5B0A0122214618
:102AF0005A4815F045FB5A4951F82400574B0B2210
:102B0000002115F03BFA564951F82400534B0A2294
:102B1000002115F033FA4F4890F8154190F916014D
:102B200000EE100AB8EEC00AB0EE408A494890EDB7
:102B3000470AD0ED4D0A00EE880AF0EE409AB0EE5A
:102B4000492AF0EE681AB0EE691ADFED430A9FEDEC
:102B5000420A01222146414815F012FB404951F832
:102B600024003E4B0B22002115F008FA3C4951F895
:102B700024003A4B0A22002115F000FA66E035489D
:102B800090F8B84090F9BA0000EE100AB8EEC00A0A
:102B9000B0EE408A2F4890ED2F0AD0ED350A00EEB6
:102BA000880AF0EE409AB0EE492AF0EE681AB0EECC
:102BB000691ADFED290A9FED280A012221462748DC
:102BC00015F0DEFA264951F82400244B0B2200218F
:102BD00015F0D4F9224951F82400204B0A22002193
:102BE00015F0CCF91B4890F8144190F9160100EE4D
:102BF000100AB8EEC00AB0EE408A164890ED460AB8
:102C0000D0ED4C0A00EE880AF0EE409AB0EE492A68
:102C1000F0EE681AB0EE691ADFED0F0A9FED0E0AAA
:102C2000012221460D4815F0ABFA0D4951F8240058
:102C30000A4B0B22002115F0A1F9094951F8240093
:102C4000064B0A22002115F099F900BF00BFBDEC28
:102C5000048B70BDB80A002000000000780C002032
:102C6000308F01082DE9F0410746C7EBC70000EBA4
:102C70000710244901EB800425786678D4ED150A05
:102C8000B0EE600A9FED202ADFED1F1A9FED1E1A9D
:102C9000DFED1D0A012229461C4815F071FA1C4976
:102CA00051F82500194B0B22002115F067F918493E
:102CB00051F82500154B0A22002115F05FF9D4EDDB
:102CC000160AB0EE600A9FED102ADFED0F1A9FED95
:102CD0000E1ADFED0D0A012231460C4815F050FAAC
:102CE0000B4951F82600094B0B22002115F046F93B
:102CF000074951F82600054B0A22002115F03EF93C
:102D0000BDE8F081B80A002000000000280C002077
:102D1000F08E010870B504460D46C4EBC40000EB0C
:102D200004100A4901EB80063046FFF777FD304674
:102D3000FFF722FC00B170BD29463046FFF7AEFD1B
:102D4000304600F005F800BFF5E70000B80A0020A3
:102D500010B52DED088B98B004469FED5A0AF0EEA1
:102D600040BA94F9020000EE100AB8EEC00AB0EEC4
:102D7000409A5C22214601A8FDF7FBFB9DED040A69
:102D8000DFED500A30EE200A8DED040A01A8FFF7AE
:102D9000F3FB68B19FED4C0A84ED150A9FED4A0ADA
:102DA00084ED160A4FF0FF3018B0BDEC088B10BD53
:102DB0009DED0C0AD4ED0B0A30EE600ADFED410AFE
:102DC000C0EE209A9DED0D0AD4ED0C0A30EE600A9B
:102DD000DFED3C0A80EE20AA5C22214601A8FDF727
:102DE000C8FB9DED050ADFED370A30EE200A8DEDB8
:102DF000050A01A8FFF7C0FB50B19FED330A84ED2F
:102E0000150A9FED310A84ED160A4FF0FF30CBE72B
:102E10009DED0C0AD4ED0B0A30EE600ADFED290AB5
:102E2000C0EE20AA9DED0D0AD4ED0C0A30EE600A2A
:102E3000DFED240A80EE20BA94ED130A20EE290A71
:102E4000D4ED140A0AEE200A20EE098A94ED130A42
:102E500020EE2A0AD4ED140A0BEE200A60EE098A4D
:102E6000B2EE040AB4EEC08AF1EE10FA03DDB2EE5F
:102E7000040AB0EE408ABAEE040AB4EEC08AF1EE5B
:102E800010FA03D2BAEE040AB0EE408AB2EE040A97
:102E9000F4EEC08AF1EE10FA03DDB2EE040AF0EEB1
:102EA000408ABAEE040AF4EEC08AF1EE10FA03D2B8
:102EB000BAEE040AF0EE408A84ED158AC4ED168A53
:102EC000002071E76F12833A0000000010B502463F
:102ED00092F82030012B01D0022B06D110684069F6
:102EE000084314686061002010BD506A40F48020DF
:102EF00050620120F8E7F0B504460D461E4694F8EE
:102F0000207020688368A86800B900E000BF012F26
:102F100001D0022F7DD103F0806030B903F0006052
:102F200018B903F0805000287ED0C3F3016101205E
:102F300088403060A86860B9B5F800C0E86840EA29
:102F40004C5C206800F5C07000EB0110C0F800C0B8
:102F50000FE0D5E901C040EACC00D5F80CC040EA4A
:102F60000C00D4F800C00CF5C07C0CEB011CCCF8B4
:102F70000000D5F810C0206800F5C07000EB01100B
:102F8000C0F804C0287D01280ED1206800F5C0706B
:102F900000EB0110406840F4807C206800F5C070B0
:102FA00000EB0110C0F804C0D079000692F806C00A
:102FB00040EA0C4092F805C040EA0C2092F804C0A8
:102FC00040EA0C00D4F800C00CF5C07C0CEB011CEE
:102FD000CCF80C00D078000692F802C040EA0C4011
:102FE00092F801C040EA0C2092F800C040EA0C00C0
:102FF000D4F800C00CF5C07C0CEB011CCCF8080028
:10300000206800F5C07000EB0110006840F0010C72
:1030100001E00FE008E0206800F5C07000EB01104F
:10302000C0F800C00020F0BD606A40F4001060628B
:103030000120F8E7606A40F4802060620120F2E736
:10304000F0B504460A46216894F82050012D01D0BD
:10305000022D7ED1424901F50071086840F001005F
:103060000860086820F47C5008600868566A40EAE6
:1030700006200860107D00F01F06012000FA06F30C
:10308000C8699843C861A1F50071D069C8B9D1F881
:103090000C029843C1F80C02908880B2968940EAED
:1030A000064601F51070576940F83760108880B205
:1030B000168940EA064601F51070576900EBC70013
:1030C0004660D069012819D1D1F80C021843C1F823
:1030D0000C02908880B2168840EA064601F510700E
:1030E000576940F83760908980B2168940EA0646F1
:1030F00001F51070576900EBC7004660906928B968
:10310000D1F804029843C1F8040204E0D1F80402A3
:103110001843C1F80402106928B9D1F81402984381
:10312000C1F8140204E0D1F814021843C1F81402E3
:10313000106A012804D1D1F81C021843C1F81C02FE
:10314000D1F8000220F00100C1F800020020F0BD1B
:10315000FFE7606A40F4802060620120F7E700002A
:1031600000640040704770B5044694F82050012D6B
:1031700001D0022D7DD151B92068C06800F0030054
:1031800080B9606A40F400106062012070BD206860
:10319000006900F0030028B9606A40F40010606222
:1031A0000120F3E7206800F5D87000EB01100068FB
:1031B00000F004009060906840B9206800F5D87075
:1031C00000EB01100068400D106007E0206800F57A
:1031D000D87000EB01100068C0085060206800F54E
:1031E000D87000EB0110006800F00200D060206889
:1031F00000F5D87000EB0110406800F00F000828BF
:1032000002D30820106108E0206800F5D87000EBB8
:103210000110406800F00F001061206800F5D870C0
:1032200000EB0110406800F47F40000A90612068C4
:1032300000F5D87000EB01104068000C5061206868
:1032400000F5D87000EB011080681870206800F558
:10325000D87000EB0110806800F47F40000A5870BD
:10326000206800F5D87000EB0110806800F47F0042
:1032700000E03CE0000C9870206800F5D87000EB8E
:1032800001108068000ED870206800F5D87000EB3F
:103290000110C0681871206800F5D87000EB0110AB
:1032A000C06800F47F40000A5871206800F5D870AB
:1032B00000EB0110C06800F47F00000C98712068DA
:1032C00000F5D87000EB0110C068000ED87131B95C
:1032D0002068C06840F020002668F06005E02068A3
:1032E000006940F020002668306100204EE7606AE7
:1032F00040F480206062012048E72DE9F05F044639
:103300000025206846692068D0F804902068876806
:103310002068D0F80CA02068D0F810B02068D0F851
:10332000188006F00100002855D007F00100C0B158
:1033300001202168886007F0020018B1204600F0E3
:1033400032FB0EE007F0040010B145F4006508E020
:1033500007F0080010B145F4805502E0204600F067
:1033600021FB07F48070C8B14FF480702168886039
:1033700007F4007018B1204600F017FB0EE007F4C8
:10338000806010B145F4005508E007F4006010B10A
:1033900045F4804502E0204600F006FB07F480304B
:1033A000C8B14FF480302168886007F4003018B14C
:1033B000204600F0FCFA0EE007F4802010B145F43E
:1033C000004508E007F4002010B145F4803502E024
:1033D000204600F0EBFA06F0080038B10AF01000C1
:1033E00020B145F4007510202168C86006F0040083
:1033F00040B10AF0080028B108202168C8602046C2
:1034000000F01CFA06F0020038B12068C06800F035
:10341000030010B1204600F013FA06F0400038B166
:103420000BF0100020B145F4806510202168086180
:1034300006F0200040B10BF0080028B108202168F8
:103440000861204600F07CFA06F0100038B12068D0
:10345000006900F0030010B1204600F072FA06F493
:10346000003040B109F0100028B1102021684860F8
:10347000204600F067FA06F4803040B109F00800F9
:1034800028B1082021684860204600F091FA06F42F
:10349000004088B309F0040078B306F4807020B1CE
:1034A00008F0010008B145F0010506F4007020B1F4
:1034B00008F0020008B145F0020506F4806020B172
:1034C00008F0040008B145F0040506F40060A0B15E
:1034D00008F0700088B108F07000402817D006DCB2
:1034E00010280BD020280CD0302819D10CE05028FF
:1034F00010D0602814D110E01DE019E045F0080557
:103500000FE045F010050CE045F0200509E045F01E
:10351000400506E045F0800503E045F4807500E0D5
:1035200000BF00BF2068806920F0700021688861BA
:103530000420216848602DB1606A284360622046FB
:10354000FFF710FEBDE8F09F70B504460CB90120EE
:1035500070BD94F8200010B9204600F0AFF8206844
:10356000006840F001002168086000F081FD054618
:103570000DE000F07DFD401B0A2808D9606A40F488
:1035800000306062052084F820000120E0E7206818
:10359000406800F001000028EBD02068006820F0AF
:1035A00002002168086000F063FD05460DE000F0B0
:1035B0005FFD401B0A2808D9606A40F40030606251
:1035C000052084F820000120C2E72068406800F050
:1035D00002000028EBD1207E012806D12068006877
:1035E00040F080002168086005E02068006820F055
:1035F000800021680860607E012806D1206800688C
:1036000040F040002168086005E02068006820F074
:10361000400021680860A07E012806D1206800686B
:1036200040F020002168086005E02068006820F074
:10363000200021680860E07E012806D1206800682B
:1036400020F010002168086005E02068006840F064
:10365000100021680860207F012806D120680068DA
:1036600040F008002168086005E02068006820F04C
:10367000080021680860607F012806D12068006882
:1036800040F004002168086005E02068006820F030
:10369000040021680860D4E9020108432169084355
:1036A000616908436168491E08432168C8610020B8
:1036B0006062012084F82000002049E710B586B040
:1036C0000446142101A8FCF786FF56492068884269
:1036D00049D155480068401C5349086008460068B5
:1036E00001280FD100BF002000905048006840F032
:1036F00000704E4908600846006800F000700090B5
:1037000000BF00BF00BF002000904848103800688C
:1037100040F008004549103908600846006800F08C
:103720000800009000BF00BF03200190022002901B
:1037300000200390032004900920059001A93C4833
:1037400000F096FB00221146142000F01FFD14200B
:1037500000F008FD00221146152000F017FD15208D
:1037600000F000FD5CE033492068884258D100BF7A
:10377000002000902D48006840F080602B490860D0
:103780000846006800F08060009000BF00BF264837
:103790000068401C244908600846006801280FD1D1
:1037A00000BF002000902148006840F000701F49D1
:1037B00008600846006800F00070009000BF00BF7D
:1037C00000BF0020009019481038006840F0020047
:1037D0001649103908600846006800F002000090A1
:1037E00000BF00BF602001900220029000200390E3
:1037F000032004900920059001A90F4800F038FB30
:1038000000221146402000F0C1FC402000F0AAFC3C
:1038100000221146412000F0B9FC412000F0A2FC3A
:1038200006B010BD0064004078000020403802401F
:10383000000C024000680040000402407047000095
:1038400010B58EB004463A492068884234D105ABA1
:1038500007AA00212046FFF786FC0898C0F3032042
:10386000092826D2DFE800F005060708090A0B0C34
:103870000D0000BF00BF00BF00BF00BF00BF00BF02
:1038800000BF0898C0F303202A49087005A92948F9
:10389000007800EB8000284A02EBC000CDE903016C
:1038A0000BA807C88DE8070007A80FC814F0C6FBCF
:1038B00000E000BF00BF00BF20492068884234D12B
:1038C00005AB07AA00212046FFF74DFC0898C0F37E
:1038D0000320092826D2DFE800F005060708090AB8
:1038E0000B0C0D0000BF00BF00BF00BF00BF00BF3A
:1038F00000BF00BF0898C0F303200E49087005A957
:103900000C48007800EB80000B4A02EBC000CDE9C8
:1039100003010BA807C88DE8070007A80FC814F01B
:103920008DFB00E000BF00BF00BF0EB010BD000067
:10393000006400404A020020A0020020006800400D
:1039400070477047704770B5044694F8200001280E
:1039500022D1022084F820002068006820F00100B5
:103960002168086000F084FB05460DE000F080FB54
:10397000401B0A2808D9606A40F4003060620520C4
:1039800084F82000012070BD2068406800F001002C
:103990000028EBD16062F6E7606A40F400206062C4
:1039A0000120F0E7704770477047704770477047D5
:1039B000704770B50446A56D00F05AFB064694F8B2
:1039C0003500022808D08020606500BF002084F800
:1039D000340000BF012070BD2068006820F0160090
:1039E000216808602068406920F0800021684861F3
:1039F000206C08B9A06C28B12068006820F008008D
:103A0000216808602068006820F0010021680860D3
:103A100010E000F02DFB801B05280BD920206065ED
:103A2000032084F8350000BF002084F8340000BF74
:103A30000320D0E72068006800F001000028E8D1EA
:103A400094F85C103F208840A860012084F835007D
:103A500000BF002084F8340000BF00BFBBE7014670
:103A600091F83500022803D0802048650120704776
:103A7000052081F835000868006820F001000A6818
:103A800010600020F3E70000F8B504460020009025
:103A90008C4800684FF41651B0FBF1F7A56D2E6805
:103AA00094F85C1008208840304098B12068006885
:103AB00000F0040070B12068006820F00400216864
:103AC000086094F85C1008208840A860606D40F0A1
:103AD0000100606594F85C1001208840304068B1B6
:103AE0002068406900F0800040B194F85C1001202B
:103AF0008840A860606D40F00200606594F85C103A
:103B000004208840304068B12068006800F002005E
:103B100040B194F85C1004208840A860606D40F0CB
:103B20000400606594F85C1010208840304078B341
:103B30002068006800F0080050B394F85C10102072
:103B40008840A8602068006800F4802080B1206868
:103B5000006800F4002028B9206CC8B12046216C10
:103B6000884715E0A06C98B12046A16C88470FE00B
:103B70002068006800F4807028B92068006820F090
:103B8000080021680860206C10B12046216C88472D
:103B900094F85C10202088403040002865D02068D0
:103BA000006800F0100000285FD094F85C1020201E
:103BB0008840A86094F83500052828D1206800685E
:103BC00020F01600216808602068406920F080001D
:103BD00021684861206C08B9A06C28B12068006891
:103BE00020F008002168086094F85C103F208840AD
:103BF000A860012084F8350000BF002084F834005C
:103C000000BF206D10B12046216D8847F8BD2068A7
:103C1000006800F4802080B12068006800F4002073
:103C200028B9606C10B12046616C88471DE0E06BDC
:103C3000D8B12046E16B884717E02068006800F49F
:103C4000807068B92068006820F010002168086062
:103C5000012084F8350000BF002084F8340000BF44
:103C6000E06B10B12046E16B8847606D38B3606D42
:103C700000F00100F0B1052084F8350020680068EC
:103C800020F001002168086000BF0098401C0090EF
:103C9000B84200D905E02068006800F00100002863
:103CA000F3D100BF012084F8350000BF002084F864
:103CB000340000BFE06C10B12046E16C884700BFC3
:103CC000A4E70000880000202DE9F041044600250B
:103CD00000F0CEF9074614B90120BDE8F081606A12
:103CE00000B100BF022084F8350000BF002084F836
:103CF000340000BF2068006820F0010021680860DF
:103D00000AE000F0B5F9C01B052805D92020606540
:103D1000032084F83500E0E72068006800F0010027
:103D20000028EED12068056821480540D4E901014A
:103D30000843E16808432169084361690843A169B0
:103D40000843E1690843216A08430543606A04287F
:103D500003D1D4E90B0108430543206805602068BE
:103D6000456925F00705606A0543606A04280DD19E
:103D7000A06A0543E06A48B12046FEF75BFA28B125
:103D800040206065012084F83500A6E72068456181
:103D90002046FEF735FA064694F85C103F2088402E
:103DA000B06000206065012084F83500002094E7B1
:103DB0003F8010F02DE9F04704460D4616461F4699
:103DC0004FF00008D4F8589000BF94F83400012850
:103DD00002D10220BDE8F087012084F8340000BF42
:103DE00094F83500012825D1022084F83500002000
:103DF00060653B46324629462046FEF770FA94F845
:103E00005C103F208840C9F808002068006840F036
:103E1000160021680860206C28B12068006840F016
:103E20000800216808602068006840F001002168EF
:103E3000086006E000BF002084F8340000BF4FF0A7
:103E400002084046C6E7000070B5044600F010F9CD
:103E500006462546681C10B104480078054400BF9A
:103E600000F006F9801BA842FAD370BD8400002040
:103E7000F8B502460B460025002400200021D6E0BC
:103E8000012606FA01F51E6806EA0504AC4274D163
:103E90001E7906F00306012E04D01E7906F00306F3
:103EA000022E13D190684F000326BE40B0434F004E
:103EB000DE68BE4030439060506801268E40B043BB
:103EC0001E79C6F300168E40304350601E7906F00E
:103ED0000306032E09D0D0684F000326BE40B0432E
:103EE0004F009E68BE403043D0601E7906F0030646
:103EF000022E13D1CF0802F1200656F827004E07F4
:103F0000F70E0F26BE40B0434F07FF0E1E69BE409E
:103F10003043CF0802F1200646F8270010684F0012
:103F20000326BE40B0431E7906F003064F00BE4094
:103F3000304310605E6806F44036002E76D000BF35
:103F4000002600963C4E366846F480463A4F3E6066
:103F50003E46366806F48046009600BF00BF374EE6
:103F60008F0856F827008E07370F0F26BE40B04344
:103F7000334EB24202D1002624E057E0314EB24225
:103F800001D101261EE0304EB24201D1022619E0D5
:103F90002E4EB24201D1032614E02D4EB24201D181
:103FA00004260FE02B4EB24201D105260AE02A4E2C
:103FB000B24201D1062605E0284EB24201D10726C1
:103FC00000E008268F073F0FBE4030431B4E8F088E
:103FD00046F82700224E3068A0435E6806F480163B
:103FE00006B120431E4E3060361D3068A0435E6827
:103FF00006F4001606B12043194E361D3060184EE7
:10400000361F3068A0435E6806F4003606B12043D0
:10401000134E361F3060361F3068A0435E6806F4CA
:10402000803606B120430E4E083E3060491C1029F0
:10403000FFF426AFF8BD00004438024008380140C4
:10404000000002400004024000080240000C024050
:10405000001002400014024000180240001C024000
:10406000083C01400AB1816101E00B0483617047A3
:1040700001480068704700007C0000200348006889
:104080000349097808440149086070477C00002012
:104090008400002010B50D48006840F400700B4902
:1040A00008600846006840F48060086008460068C0
:1040B00040F480700860032000F0A6F80F2000F0A4
:1040C00007F800F02BF8002010BD0000003C024073
:1040D00070B504460E4800784FF47A71B1FBF0F0E9
:1040E0000C490968B1FBF0F5284600F02FFC08B137
:1040F000012070BD102C07D200222146501E00F076
:1041000045F80548046001E00120F2E70020F0E7EF
:1041100084000020880000208000002008B500BF37
:10412000002000900E48006840F480400C49086070
:104130000846006800F48040009000BF00BF00BF48
:1041400000200090081F006840F08050091F0860A0
:104150000846006800F08050009000BF00BF08BD16
:10416000443802400146084600280DDB00BF00BF6E
:1041700000F01F0301229A4043099B0003F1E02352
:10418000C3F8002100BF00BF00BF70472DE9F05FFA
:1041900080460D461646002702F0DAFD07463946EE
:1041A0002A46334601F00700C0F1070ABAF1040FAE
:1041B00002D94FF0040A01E0C0F1070AD14600F12C
:1041C000040ABAF1070F02D24FF0000A01E0A0F191
:1041D000030AD4464FF0010A0AFA09FAAAF1010AC1
:1041E0000AEA020A0AFA0CFA4FF0010B0BFA0CFB6E
:1041F000ABF1010B0BEA030B4AEA0B0421464046E4
:1042000002F0AEFDBDE8F09F00BF00F00702064BD4
:1042100019684FF6FF031940044B0B4343EA022190
:10422000014B196000BF70470CED00E00000FA057B
:1042300070B504460D460CB9012070BD58480068A1
:1042400000F00700A84209D255490D7008460068E1
:1042500000F00700A84201D00120EEE7207800F02E
:10426000020002281DD1207800F00400042805D1A6
:104270004C48006840F4E0504A490860207800F05B
:104280000800082805D14748006840F460404549C7
:1042900008604448006820F0F000A16808434149E4
:1042A0000860207800F00100A8B36068012807D1F9
:1042B0003C4808380068C0F34040B8B90120BCE76A
:1042C0006068022802D06068032807D135480838A2
:1042D0000068C0F3406048B90120AEE731480838B3
:1042E0000068C0F3400008B90120A6E72D48006827
:1042F00020F00300616808432A490860FFF7B8FE10
:10430000064609E0FFF7B4FE801B41F2883188427F
:1043100002D9032091E707E02248006800F00C0072
:104320006168B0EB810FEDD11D48006800F0070017
:10433000A84209D91A490D700846006800F0070024
:10434000A84201D0012078E7207800F0040004287A
:1043500007D11448006820F4E050E168084311498F
:104360000860207800F00800082808D10D4800688F
:1043700020F46040216940EAC1000A49086000F069
:104380003FF808490968C1F30311074A515CC84066
:104390000649086006480068FFF79AFE00204CE7CF
:1043A000003C024008380240988D01088800002037
:1043B000800000200148006870470000880000204D
:1043C00000B5FFF7F7FF04490968C1F38221034AEA
:1043D000515CC84000BD000008380240A88D0108AB
:1043E00000B5FFF7E7FF04490968C1F34231034A0A
:1043F000515CC84000BD000008380240A88D01088B
:104400002DE9F047002400250026A1462548006834
:1044100000F00C0020B1042805D008283AD105E0AE
:10442000DFF8849039E0DFF8849036E01D48001F03
:10443000006800F03F041B48001F006800F4800083
:1044400078B11A481749091F0968C1F38811A0FB00
:1044500001700146224600233846FBF77BFF0546E4
:104460000EE011480F49091F0968C1F38811A0FB2C
:1044700001700146224600233846FBF76BFF0546D4
:104480000848001F0068C0F30140401C4600B5FB0F
:10449000F6F902E0DFF8109000BF00BF4846BDE823
:1044A000F0870000083802400024F40040787D01C5
:1044B000F8B504460CB90120F8BD207800F00100E1
:1044C000002874D0F948006800F00C0004280DD0D2
:1044D000F648006800F00C00082813D1F348001FCC
:1044E000006800F48000B0F5800F0BD1EF48083869
:1044F0000068C0F34040002859D06068002856D1B9
:104500000120D9E700BF6068B0F5803F08D1E748D7
:104510000838006840F48030E449083908601EE03B
:104520006068B0F5A02F0DD1E0480838006840F46D
:104530008020DE49083908600846006840F4803071
:1045400008600CE0D9480838006820F48030D7496A
:10455000083908600846006820F48020086000BF21
:10456000606890B1FFF784FD054606E0FFF780FD27
:10457000401B642801D903209EE7CC480838006816
:10458000C0F340400028F1D011E0FFF771FD05466F
:1045900006E0FFF76DFD401B642801D903208BE77F
:1045A000C24808380068C0F340400028F1D12078A4
:1045B00000F0020002285FD1BC48006800F00C0047
:1045C00058B1BA48006800F00C0008281CD1B74860
:1045D000001F006800F48000B0B9B44808380068D3
:1045E000C0F3400020B1E068012801D0012063E75A
:1045F000AE480838006820F0F800216940EAC100A0
:10460000AA490839086037E0E06800B30120A849EA
:104610000860FFF72DFD054606E0FFF729FD401B6A
:10462000022801D9032047E7A04808380068C0F3F2
:1046300040000028F1D09D480838006820F0F800BC
:10464000216940EAC10099490839086014E0002056
:1046500097490860FFF70CFD054606E0FFF708FDE7
:10466000401B022801D9032026E79048083800683B
:10467000C0F340000028F1D1207800F0080008289D
:104680002CD16069A8B101208A490860FFF7F0FCCD
:10469000054606E0FFF7ECFC401B022801D9032089
:1046A0000AE782486C300068C0F340000028F1D06F
:1046B00014E000207F490860FFF7DAFC054606E0B9
:1046C000FFF7D6FC401B022801D90320F4E6774807
:1046D0006C300068C0F340000028F1D1207800F071
:1046E0000400042870D1002770483830006800F0BA
:1046F000805090B900BF002000906C4838300068AE
:1047000040F080506949383108600846006800F080
:104710008050009000BF00BF01276748006800F488
:104720008070B0B96448006840F4807062490860E5
:10473000FFF79EFC054606E0FFF79AFC401B0228A7
:1047400001D90320B8E65C48006800F480700028B6
:10475000F2D000BFA068012808D154486830006832
:1047600040F001005149683108601DE0A06805284B
:104770000DD14E486830006840F004004B49683164
:1047800008600846006840F0010008600CE04748F7
:104790006830006820F0010044496831086008462C
:1047A000006820F00400086000BFA068A8B1FFF70F
:1047B0005FFC054609E0FFF75BFC401B41F28831D6
:1047C000884202D9032077E626E03848683000683E
:1047D000C0F340000028EED013E0FFF749FC054687
:1047E00008E0FFF745FC401B41F28831884201D9BF
:1047F000032061E62D4868300068C0F340000028BF
:10480000EFD1012F07D129483830006820F08050BF
:1048100026493831086000BFA069002845D02348E8
:10482000006800F00C0008285DD0A069022845D17E
:1048300000201F490866FFF71BFC054606E0FFF74E
:1048400017FC401B022801D9032035E61748083819
:104850000068C0F340600028F1D1D4E907010843A3
:10486000616A40EA81110122A06AC2EB500041EA6C
:1048700000412C20005D41EA00600C49091F0860DE
:1048800001200B490866FFF7F3FB054606E0FFF73A
:10489000EFFB401B022801D903200DE6034808382E
:1048A0000068C0F340600028F1D049E008380240B9
:1048B00000004742800E474200700040002021491E
:1048C0000866FFF7D5FB054606E0FFF7D1FB401B66
:1048D000022801D90320EFE51B480068C0F34060BF
:1048E0000028F2D12CE0A069012800D1E4E51648A7
:1048F000001D0668A069012820D006F48001E06947
:1049000081421BD106F03F01206A814216D147F651
:10491000C0703040616AB0EB811F0FD106F44031A6
:104920000122A06AC2EB5000B1EB004F06D106F0A5
:1049300070612C20005DB1EB006F01D00120BBE560
:104940000020B9E5000047420038024070B5044637
:104950002546681EB0F1807F01D301200FE0681E5C
:104960004FF0E02148610F214FF0FF3002F0F8F9DD
:1049700000204FF0E021886107200861002070BD11
:104980007047704730B502460B4600BF92F83C00B6
:10499000012801D1022030BD012082F83C0000BF77
:1049A000022082F83D00106844681068816824F095
:1049B00070041868044310684460184D1068A842D9
:1049C0001BD01068B0F1804F17D0154D1068A84269
:1049D00013D0144D1068A8420FD0134D1068A84290
:1049E0000BD0124D1068A84207D0114D1068A84294
:1049F00003D0104D1068A84205D121F080015868FD
:104A0000014310688160012082F83D0000BF002052
:104A100082F83C0000BF00BFBDE70000000001407D
:104A20000004004000080040000C00400004014069
:104A3000004001400018004010B504460CB90120A8
:104A400010BD94F83D0028B9002084F83C002046B1
:104A500000F026F8022084F83D00211D206801F0B6
:104A60009DFD012084F8460000BF84F83E0001212E
:104A70003F200155402001554120015500BF00BF96
:104A8000012084F84200432001554420015545206F
:104A9000015500BF012084F83D000020D0E7000050
:104AA00038B5044618492068884218D100BF002054
:104AB00000901648006840F010001449086008464D
:104AC000006800F01000009000BF00BF00221146F7
:104AD0003620FFF75BFB3620FFF744FB13E00C4961
:104AE000206888420FD100BF00200090074800686E
:104AF00040F02000054908600846006800F02000EA
:104B0000009000BF00BF38BD001000404038024098
:104B100000140040014691F83D00012801D0012019
:104B20007047022081F83D000868C06840F001002D
:104B30000B68D8601A4B086898421BD00868B0F11F
:104B4000804F17D0174B0868984213D0164B08684F
:104B500098420FD0154B086898420BD0144B086848
:104B6000984207D0134B0868984203D0124B08684C
:104B700098420CD10868806800F00702062A0CD021
:104B80000868006840F001000B68186005E00868DC
:104B9000006840F001000B6818600020C0E70000CA
:104BA000000001400004004000080040000C0040EC
:104BB000000401400040014000180040704770B5FB
:104BC00004462068C5682068066906F002000228CD
:104BD00019D105F00200022815D1401F2168086193
:104BE000012020772068806900F0030018B120467A
:104BF000FFF7E4FF05E0204600F097F8204600F0BC
:104C000095F80020207706F00400042819D105F05B
:104C10000400042815D1C0432168086102202077D0
:104C20002068806900F4407018B12046FFF7C6FF85
:104C300005E0204600F079F8204600F077F80020E3
:104C4000207706F00800082819D105F00800082888
:104C500015D1C04321680861042020772068C0690D
:104C600000F0030018B12046FFF7A8FF05E020463A
:104C700000F05BF8204600F059F80020207706F09D
:104C80001000102819D105F01000102815D1C043CC
:104C900021680861082020772068C06900F440700E
:104CA00018B12046FFF78AFF05E0204600F03DF8E6
:104CB000204600F03BF80020207706F0010048B1C4
:104CC00005F0010030B16FF0010021680861204655
:104CD00000F02EF806F08000802809D105F0800051
:104CE000802805D1C043216808612046FFF748FEAF
:104CF00006F04000402809D105F04000402805D1C9
:104D0000C04321680861204600F0E6FA06F0200062
:104D1000202809D105F02000202805D1C0432168B2
:104D200008612046FFF72DFE70BD704770470000F8
:104D300070B52DED028B0546FE492868884232D1B8
:104D4000FD48007805282FD100241FE0C4EBC400E3
:104D500000EB0410F94901EB800090ED0B0AC4EB65
:104D6000C40000EB041001EB800080ED0F0A9FED02
:104D7000F40AC4EBC40000EB041001EB800080EDEA
:104D8000100AE0B2EF49FDF7C5FF641C042CDDDB1F
:104D9000ED480078FDF766FFEB480078401C00F016
:104DA0000300E949087086E2E348007801287DD1D4
:104DB00000246FE0E54800EB840090ED000AE44831
:104DC00000EB8400D0ED000A9FEDE21A70EEC10AFC
:104DD000B4EEE00AF1EE10FA0ED2DC4800EB8400EB
:104DE00090ED000ADFEDDB0A30EE200AD74800EB39
:104DF000840080ED000A2BE0D44800EB840090EDA5
:104E0000000AD34800EB8400D0ED000A9FEDD11AD0
:104E100070EE810AB4EEE00AF1EE10FA0EDDCB4836
:104E200000EB840090ED000ADFEDCA0A30EE600A64
:104E3000C64800EB840080ED000A09E0C44800EB9E
:104E4000840090ED000AC14800EB840080ED000A68
:104E50009FEDC10AC4EBC40000EB0410B74901EB9D
:104E6000800080ED0F0AB94800EB840090ED000A45
:104E7000C4EBC40000EB041001EB800080ED100ACD
:104E8000C4EBC40101EB0411AC4A02EB8100FDF755
:104E9000EDFA641C042C8DDBDFEDB00AB6EE000ADF
:104EA000A9480078FDF724FDA74800E006E0007857
:104EB000401C00F00300A4490870FCE19E48007803
:104EC000022803D09C48007803280FD1A44800781A
:104ED00099490978884201D013F060F99648007822
:104EE0009F490870984813F075F9E4E196480078F6
:104EF00000286BD19B4890ED000B51EC100B13F088
:104F0000B5FA08EE100A984890ED001BB0EE410A81
:104F1000F0EE610A51EC100B13F0A8FA08EE900ABB
:104F20009248D0ED000AB0EE600A9FED8C2AF0EEB8
:104F3000481AB0EE681ADFED880A012200218C4879
:104F400013F01EF98A4B0B2200218A4813F016F841
:104F5000874B0A220021874813F010F8814890ED12
:104F6000000B51EC100B13F081FA08EE100A7E488A
:104F700090ED041BB0EE410AF0EE610A51EC100B0B
:104F800013F074FA08EE900A7848D0ED020AB0EEF9
:104F9000600A9FED722AF0EE481AB0EE681ADFED53
:104FA0006E0A01220221724813F0EAF8704B0B22BC
:104FB0000021714812F0E2FF6D4B0A2200216E4879
:104FC00012F0DCFF01206049087074E15E4800784F
:104FD00001286BD1634890ED000B51EC100B13F0DE
:104FE00045FA08EE100A604890ED021BB0EE410A47
:104FF000F0EE610A51EC100B13F038FA08EE900A4B
:105000005A48D0ED010AB0EE600A9FED542AF0EE46
:10501000481AB0EE681ADFED500A012211465448D2
:1050200013F0AEF8524B0B220021524812F0A6FFAB
:105030004F4B0A2200214F4812F0A0FF494890ED43
:10504000000B51EC100B13F011FA08EE100A464851
:1050500090ED061BB0EE410AF0EE610A51EC100B28
:1050600013F004FA08EE900A4048D0ED030AB0EEBF
:10507000600A9FED3A2AF0EE481AB0EE681ADFEDAA
:10508000360A012203213A4813F07AF8384B0B22F2
:105090000021394812F072FF354B0A2200213648B0
:1050A00012F06CFF02202849087004E126480078BD
:1050B00002283ED12B4890ED000B51EC100B13F061
:1050C000D5F908EE100A284890ED081BB0EE410A09
:1050D000F0EE610A51EC100B13F0C8F908EE900ADB
:1050E0002248D0ED040AB0EE600A9FED1C2AF0EED3
:1050F000481AB0EE681ADFED180A012204211C4894
:1051000013F03EF81A4B0B2200211B4812F036FF19
:10511000174B0A220021184812F030FF114890ED79
:10512000000B51EC100B13F0A1F908EE100A0E4819
:1051300024E051E00010004030000020B80A0020B8
:10514000AE4761BE34000020000000202000002097
:10515000100000206F12033A000000000AD7233C21
:1051600074000020D8000020480A0020880A00208F
:1051700078020020880600206006002090ED0C1BBD
:10518000B0EE410AF0EE610A51EC100B13F06EF92B
:1051900008EE900A4948D0ED060AB0EE600A1FED0D
:1051A000112AF0EE481AB0EE681A5FED150A0122D6
:1051B0000621434812F0E4FF414B0B2200214148F5
:1051C00012F0DCFE3E4B0A2200213E4812F0D6FED1
:1051D00003203D4908706EE03B48007803286AD1FF
:1051E0003A4890ED000B51EC100B13F03FF908EE2C
:1051F000100A374890ED0A1BB0EE410AF0EE610A42
:1052000051EC100B13F032F908EE900A2B48D0ED58
:10521000050AB0EE600A1FED2F2AF0EE481AB0EE34
:10522000681A5FED330A01220521254812F0A8FF14
:10523000234B0B220021274812F0A0FE204B0A220C
:105240000021244812F09AFE204890ED000B51EC0A
:10525000100B13F00BF908EE100A1D4890ED0E1B11
:10526000B0EE410AF0EE610A51EC100B13F0FEF8BB
:1052700008EE900A1148D0ED070AB0EE600A1FED63
:10528000492AF0EE481AB0EE681A5FED4D0A012285
:1052900007210B4812F074FF094B0B22002109482B
:1052A00012F06CFE064B0A220021064812F066FE40
:1052B000002005490870BDEC028B70BD880A0020F3
:1052C000780200208806002000000020D80000207E
:1052D000480A0020600600207047F8B504460E46D4
:1052E000174694F8420020282ED106B10FB90120AC
:1052F000F8BD01202063002060633A463146204615
:1053000001F04CFC0546EDB9206B012819D100BF16
:10531000002000902068006800902068406800909D
:1053200000BF00BF00BF00BF21680C3151E8001F63
:1053300041F0100021680C3141E80002002AF3D14D
:1053400000E001252846D3E70220D1E770B50546E5
:105350000C460F492868884218D1284600F022F8E8
:1053600022460C490C4812F06BFC7F210948FBF7E0
:1053700032F97F2207490948FFF7AFFF0848006864
:10538000006820F0080006490968086070BD000048
:105390000044004038090020B80900208807002098
:1053A0007808002070B50446002520684069C0F3E5
:1053B000C01594F84100212817D1B5B100BF00BF36
:1053C0002168143151E8001F21F080002168143158
:1053D00041E80002002AF3D100BFA06B10B1A06B1E
:1053E000FEF7E7FA204601F031FA20684069C0F381
:1053F000801594F84200222817D1B5B100BF00BF34
:105400002168143151E8001F21F040002168143157
:1054100041E80002002AF3D100BFE06B10B1E06B5D
:10542000FEF7C7FA204601F0CBF9002070BD00005E
:1054300010B5044604492068884204D11222034969
:10544000034800F00FFB10BD001001406602002071
:10545000400700202DE9F84F0446206805682068C1
:10546000C668206847694FF00009CA4605F00F0971
:10547000B9F1000F0AD105F0200038B106F0200084
:1054800020B1204601F0F5F9BDE8F88FB9F1000F21
:105490007CD007F0010018B906F49070002875D090
:1054A00005F0010030B106F4807018B1606C40F076
:1054B0000100606405F0040030B107F0010018B18C
:1054C000606C40F00200606405F0020030B107F04B
:1054D000010018B1606C40F00400606405F0080041
:1054E00048B106F0200010B907F0010018B1606C57
:1054F00040F008006064606C002846D005F0200091
:1055000028B106F0200010B1204601F0B2F9206861
:105510004069C0F3801A606C00F0080010B9BAF15D
:10552000000F2DD0204601F04BF92068406900F0B3
:105530004000402820D100BF00BF2168143151E84D
:10554000001F21F040002168143141E80002002AC8
:10555000F3D100BFE06B50B17748E16B0865E06BB9
:10556000FEF77DFA88B1E06B016D88470DE02046BB
:10557000FFF75EFF09E009E02046FFF759FF04E06E
:105580002046FFF755FF002060647DE7206B01286F
:1055900078D105F01000002874D006F01000002823
:1055A000FAD000BF002000902068006800902068BA
:1055B0004068009000BF00BF2068406900F04000D4
:1055C000402860D1E06B006840681FFA80F8B8F1AD
:1055D000000F56D0A08D404553DDA4F82E80E06B1F
:1055E000C069B0F5807F43D000BF00BF21680C3197
:1055F00051E8001F21F4807021680C3141E800025D
:10560000002AF3D100BF00BF00BF2168143151E868
:10561000001F21F001002168143141E80002002A36
:10562000F3D100BF00BF00BF2168143151E8001F53
:1056300021F040002168143141E80002002AF3D132
:1056400000BF202084F842000020206300BF00BF7C
:1056500021680C3151E8001F21F0100021680C3145
:1056600041E80002002AF3D100BFE06BFEF7A1F988
:1056700002206063A08DE28D801A81B22046FFF780
:1056800065FE01E742E0A08DE18D401A1FFA80F827
:10569000E08DD0B3B8F1000F37D000BF00BF216854
:1056A0000C3151E8001F21F4907021680C3141E861
:1056B0000002002AF3D100BF00BF00BF21681431EF
:1056C00051E8001F21F001002168143141E8000277
:1056D000002AF3D100BF202084F84200002020637C
:1056E00000BF00BF21680C3151E8001F21F01000FD
:1056F00021680C3141E80002002AF3D100BF0220EA
:10570000606341462046FFF721FEBDE605F08000BC
:1057100030B106F0800018B1204601F0A3FAB3E6DC
:1057200005F0400030B106F0400018B1204601F00D
:105730007DF8A9E600BFA7E68566000810B5044617
:105740000CB9012010BDA06900B100E000BF94F8C1
:10575000410028B9002084F84000204600F02AF8D3
:10576000242084F841002068C06820F4005021689B
:10577000C860204601F0FCF82068006920F49040E1
:10578000216808612068406920F02A00216848618A
:105790002068C06840F400502168C8600020606440
:1057A000202084F8410084F842000020606300BF9C
:1057B000C8E7000010B586B00446142101A8FAF726
:1057C0000AFF9B492068884278D100BF00200090E2
:1057D0009848006840F01000964908600846006844
:1057E00000F01000009000BF00BF00BF002000903C
:1057F00090481438006840F001008E491439086060
:105800000846006800F00100009000BF00BF00BF24
:10581000002000900846006840F00200086008463A
:10582000006800F00200009000BF00BF4815019022
:10583000022002900020039003200490072005908E
:1058400001A97D48FEF714FB802001900220029000
:1058500000200390032004900720059001A97748B9
:10586000FEF706FB7648774908604FF00060486015
:10587000002174488160C1604FF4806101610021A2
:10588000416181614FF48071C1614FF44031016227
:1058900000214162FEF718FA08B1FCF788FD00BF4D
:1058A0006848E063846300BF002211462520FEF7AC
:1058B0006DFC2520FEF756FCB8E0FFE76249206842
:1058C00088425AD100BF002000905A48001F00684B
:1058D00040F400305749091F08600846006800F48A
:1058E0000030009000BF00BF00BF00200090514872
:1058F0001438006840F008004E4914390860084622
:10590000006800F00800009000BF00BF6020019018
:1059100002200290002003900320049007200590AD
:1059200001A94A48FEF7A4FA49484A4908604FF0DD
:1059300000604860002147488160C1604FF4806189
:1059400001610021416181614FF48071C1610021D9
:1059500001624162FEF7B8F908B1FCF728FD00BF0B
:105960003C48E063846300BF002211462620FEF716
:105970000DFC2620FEF7F6FB58E0374920688842E8
:1059800054D100BF002000902A48006840F0200059
:10599000284908600846006800F02000009000BF19
:1059A00000BF00BF0020009022481438006840F07B
:1059B00004002049143908600846006800F004001B
:1059C000009000BF00BFC020019002200290002084
:1059D0000390032004900820059001A91F48FEF7BA
:1059E00047FA174860381E49086080054860002162
:1059F0001B488160C1604FF48061016100214161F9
:105A00008161C16101624162FEF75EF908B1FCF794
:105A1000CEFC00BF1248E063846300BF0022114641
:105A20004720FEF7B3FB4720FEF79CFB06B010BDF6
:105A300000100140443802400000024000040240CF
:105A4000886402401808002000440040000C024016
:105A500088600240780800200014014000080240DD
:105A6000D808002070B504460D46164694F842004A
:105A700020280BD105B10EB9012070BD0020206394
:105A800032462946204601F089F8F6E70220F4E77D
:105A900034490978334A527841EA0221C1F30A01B4
:105AA000314A11802F494978C9102E4A927841EA2B
:105AB0004211C1F30A012C4A51802A49897889117F
:105AC000284AD27841EA8201264A127941EA8221A3
:105AD000C1F30A01244A9180224909794910214AD7
